:020000040800F2
:100000000000032029440008F9090008FB09000842
:10001000FD090008FF090008010A000800000000AF
:10002000000000000000000000000000712900082E
:10003000030A000800000000112A0008050A000851
:10004000814400088144000881440008814400087C
:10005000814400088144000881440008814400086C
:10006000814400088144000881440008814400085C
:10007000814400088144000881440008814400084C
:10008000814400088144000881440008814400083C
:10009000814400088144000881440008814400082C
:1000A000814400088144000881440008814400081C
:1000B000814400088144000881440008814400080C
:1000C00081440008814400088144000881440008FC
:1000D00081440008814400088144000881440008EC
:1000E00081440008814400088144000881440008DC
:1000F00081440008814400088144000881440008CC
:1001000081440008814400088144000881440008BB
:1001100081440008814400088144000881440008AB
:10012000814400088144000881440008814400089B
:0C0130008144000881440008814400085C
:1001400053B94AB9002908BF00281CBF4FF0FF313E
:100150004FF0FF3000F00CB8ADF1080C6DE904CEA3
:1001600004F0CAF9DDF804E0DDE9022304B07047C9
:10017000704700BF10B5054C237833B9044B13B159
:100180000448AFF300800123237010BD1800002045
:1001900000000000B447000808B5034B1BB1034939
:1001A0000348AFF3008008BD000000001C000020E1
:1001B000B447000868B107490B7801335A4203F08D
:1001C000070302F0070258BF53420B70024B002294
:1001D0001A60704738000020340000202DE9F041FB
:1001E0008AB00024059406940794089409944FF06B
:1001F000B043DA6C42F00402DA64DA6C02F0040212
:100200000492049ADA6C42F00102DA64DA6C02F0C9
:1002100001020392039ADA6C42F00202DA64DA6CA9
:1002200002F002020292029ADA6C42F00802DA64E8
:10023000DB6C03F008030193019B224648F26C61DA
:100240004FF0904000F0BDFD2E4F2246232138464E
:1002500000F0B7FD2C4D22464FF4A251284600F085
:10026000B0FD0D23059306940126079605A928469F
:1002700000F0C6FC022305934FF48818CDF81880CF
:10028000079605A9284600F0BBFC48F26C6305936D
:1002900006960794089405A94FF0904000F0B0FC32
:1002A0004FF4C0730593CDF81880079405A94FF05B
:1002B000904000F0A5FC102305930694079405A92F
:1002C000284600F09DFC2323059306960794089486
:1002D00005A9384600F094FC4FF4A2530593069606
:1002E0000794089405A9284600F08AFC0323059387
:1002F0000694079405A9054800F082FC0AB0BDE801
:10030000F08100BF0004004800080048000C0048CD
:1003100010B501282AD002284FD000B110BD01220B
:100320004FF400414FF0904000F04BFD364C00225E
:100330004FF48061204600F044FD00224FF48061BC
:100340004FF0904000F03DFD01224021204600F09A
:1003500038FD002204214FF0904000F032FD0022D1
:1003600008214FF0904000F02CFDD7E700224FF419
:1003700000414FF0904000F024FD234C01224FF447
:100380008061204600F01DFD00224FF480614FF097
:10039000904000F016FD00224021204600F011FDA3
:1003A000012204214FF0904000F00BFD00220821B3
:1003B0004FF0904000F005FDB0E700224FF40041FF
:1003C0004FF0904000F0FDFC0F4C00224FF4806194
:1003D000204600F0F6FC01224FF480614FF090407F
:1003E00000F0EFFC00224021204600F0EAFC002251
:1003F00004214FF0904000F0E4FC012208214FF06E
:10040000904000F0DEFC89E70008004808B50128AC
:100410002AD002284FD000B108BD012240214FF060
:10042000904000F0CEFC002280214FF0904000F080
:10043000C8FC00224FF400714FF0904000F0C1FC66
:1004400001224FF480512F4800F0BBFC00222021F4
:100450004FF0904000F0B5FC00224FF480714FF057
:10046000904000F0AEFCD7E7002240214FF09040D2
:1004700000F0A7FC012280214FF0904000F0A1FC89
:1004800000224FF400714FF0904000F09AFC0022DF
:100490004FF480511B4800F094FC012220214FF0C2
:1004A000904000F08EFC00224FF480714FF090409D
:1004B00000F087FCB0E7002240214FF0904000F0B0
:1004C00080FC002280214FF0904000F07AFC012255
:1004D0004FF400714FF0904000F073FC00224FF495
:1004E0008051084800F06DFC002220214FF0904020
:1004F00000F067FC01224FF480714FF0904000F053
:1005000060FC89E70008004838B5064D01212846FF
:1005100000F050FC04460221284600F04BFC204429
:1005200038BD00BF0008004838B5064D08212846F0
:1005300000F040FC04460421284600F03BFC204427
:1005400038BD00BF0008004808B529E0614B1B68B2
:1005500033BB44F62061604B186802F03BF95D4AFA
:100560001368013313600020FFF7D2FE0220FFF76B
:100570004DFF15E0574B1B6813B1FFF7D5FF78B15E
:1005800044F62061544B186802F024F9514A13686C
:10059000013313600020FFF7BBFE0220FFF736FF98
:1005A0004E4B1B78072BFBD801A252F823F000BF5B
:1005B0004D05000875050008D1050008FB05000879
:1005C000250600084F0600087F060008A906000857
:1005D000404B1B68002BE3D141F288313E4B186839
:1005E00002F0F8F83B4A1368013313600020FFF76C
:1005F0008FFE0120FFF70AFFD2E7364B1B68002B66
:10060000CED14FF4FA61344B186802F0E3F8314A66
:100610001368013313600020FFF77AFE0020FFF714
:10062000F5FEBDE72B4B1B68002BB9D144F62061CA
:10063000294B186802F0CEF8264A1368013313607C
:100640000220FFF765FE0020FFF7E0FEA8E7214B40
:100650001B681BB1FFF758FF0028A1D044F62061AA
:100660001D4B186802F0B6F81A4A1368013313607C
:100670000220FFF74DFE0020FFF7C8FE90E7154B64
:100680001B68002B8CD141F28831134B186802F0A3
:10069000A1F8104A1368013313600120FFF738FEF8
:1006A0000020FFF7B3FE7BE70A4B1B68002B7FF4AB
:1006B00077AF4FF4FA61084B186802F08BF8054ADF
:1006C0001368013313600020FFF722FE0220FFF7BA
:1006D0009DFE65E7340000203C000020380000202B
:1006E00072B6FEE708B51648164B03604FF4E133C7
:1006F00043604FF0805383600023C36003610C228A
:1007000042618361C36103624362836201F09DFEC3
:1007100070B900210A4801F010FF58B900210848BB
:1007200001F030FF40B9064801F0E8FE30B908BDDD
:10073000FFF7D6FFFFF7D4FFFFF7D2FFFFF7D0FF99
:10074000380300200038014008B50948094B036010
:1007500008234360022383600361002343618361B4
:10076000C361036200F032FB00B908BDFFF7B8FFB8
:10077000440000200068004030B59BB048220021B2
:1007800008A803F07EFE00240194029403940494CC
:100790000594069407944FF0B045EB6823F070037E
:1007A000EB60EB6823F0030343F00103EB6000F020
:1007B00091FBD5F8903023F01803C5F890301C4A0F
:1007C000136823F4C06343F400731360136803F4E5
:1007D000C0630093009B272308934FF48033099351
:1007E00001230A934FF480720B920F9340230C93D2
:1007F000109460231193139408A800F071FC90B931
:100800006F23019302230293002303930493059320
:1008100006930793012101A800F0EEFF28B901F02B
:100820009FFB1BB030BDFFF75BFFFFF759FF00BF19
:100830000004005800B595B050220021684603F02E
:1008400020FE4FF400530093684601F010FA10B9EF
:1008500015B05DF804FBFFF743FF000008B500F09A
:1008600037F9FFF789FFFFF7E5FFFFF7B7FCFFF761
:1008700039FFFFF769FF01F0CDFE094C094B2268F3
:100880000021094801F052FF2060084A0021084871
:1008900001F0EEFE074B186001F0CEFEFEE700BF50
:1008A0003C0000200C480008B50100081C48000866
:1008B000490500084000002008B500220F216FF014
:1008C000010000F079F908BD10B59CB00446002184
:1008D0001791189119911A911B91502203A803F0B6
:1008E000D0FD2268184B9A4201D01CB010BD0123E4
:1008F000039303A801F0BBF910BB4FF0B0431A6E8D
:1009000042F480421A661A6E02F480420292029AFF
:10091000DA6C42F00202DA64DB6C03F0020301934A
:10092000019BC023179302231893012319930023DB
:100930001A9307231B9317A9044800F061F9D4E721
:10094000FFF7CEFED9E700BF0038014000040048A1
:1009500010B59CB0044600211791189119911A9175
:100960001B91502203A803F08CFD2268214B9A4270
:1009700001D01CB010BD4FF480730393182304936F
:100980004FF4003305934FF0007306934FF000537C
:1009900007934FF0807308934FF08063109303A880
:1009A00001F065F918BB4FF0B044E36C43F001036C
:1009B000E364E36C03F001030293029B4FF4C05322
:1009C000179302231893002319931A930A231B9356
:1009D00017A94FF0904000F013F9A36D43F0806326
:1009E000A365A36D03F080630193019BC1E7FFF74B
:1009F00077FED8E700680040FEE7FEE7FEE7FEE787
:100A0000FEE7704708B500F079F803F001FA012815
:100A100000D108BD02F02EF8FBE70000164AD2F81C
:100A2000883043F47003C2F888304FF0B0431A683E
:100A300042F001021A604FF4E0229A601968A2F1B4
:100A4000A262A2F205120A401A60D3F8942022F0A2
:100A50000502C3F89420D3F8982022F00102C3F8CD
:100A60009820064ADA601A611A6822F480221A6015
:100A700000229A61704700BF00ED00E000100422E0
:100A8000114B1B780BB90120704710B5044600F0DC
:100A900017FB0D4B1A784FF47A73B3FBF2F3B0FBEC
:100AA000F3F000F099F868B90F2C01D901200AE0A1
:100AB000002221464FF0FF3000F07EF8034B1C600F
:100AC000002000E0012010BD0C00002010000020DC
:100AD00010B5094A136843F480731360032000F0D3
:100AE00059F80F20FFF7CCFF10B10124204610BDAC
:100AF0000446FFF7E1FEF9E700400058034B1B787E
:100B0000034A11680B441360704700BF0C000020BB
:100B1000CC030020014B1868704700BFCC030020B5
:100B2000014B1868704700BF10000020002808DB48
:100B30000901C9B200F1604000F5614080F800137E
:100B4000704700F00F000901C9B2014B19547047FA
:100B500014ED00E000B500F00700C0F1070CBCF197
:100B6000040F28BF4FF0040C031D062B0FD9C31E22
:100B70004FF0FF3E0EFA0CF021EA000199400EFA08
:100B800003FE22EA0E0241EA02005DF804FB0023A4
:100B9000EEE70000074AD36823F4E0631B041B0C54
:100BA000000200F4E060034343F0BF6343F400330A
:100BB000D360704700ED00E010B50446054BD868DF
:100BC000C0F30220FFF7C6FF01462046FFF7AEFF45
:100BD00010BD00BF00ED00E00138B0F1807F0BD206
:100BE0004FF0E0235861054AF02182F823100020DD
:100BF000986107221A6170470120704700ED00E0FC
:100C0000F0B5002366E085685E000324B44025EA61
:100C10000405CC68B4402C438460456825EA0C0583
:100C20004C68C4F300149C402C43446063E0DD082E
:100C3000083550F8254003F0070C4FEA8C0C4FF0B4
:100C40000F0E0EFA0CFE24EA0E0E0C6904FA0CF4D8
:100C500044EA0E0440F8254064E0042400E0002447
:100C600004FA0EF42C430CF1020C4F4D45F82C40C5
:100C70004E4C2568D44325EA02064F6817F4801FBE
:100C800001D042EA0506494D2E606D6804EA05066A
:100C90004F6817F4001F01D042EA0506434D6E600D
:100CA000D5F8805004EA05064F6817F4803F01D05C
:100CB00042EA05063D4DC5F88060D5F884502C40C9
:100CC0004E6816F4003F01D042EA0504374AC2F8E4
:100CD000844001330A6832FA03F464D04FF0010C07
:100CE0000CFA03FC1CEA0202F3D04C6804F0030483
:100CF000013C012C87D94C6804F00304032C0CD070
:100D0000C4685D004FF0030C0CFA05FC24EA0C0CDF
:100D10008C68AC4044EA0C04C4604C6804F00304E2
:100D2000022C84D004684FEA430E4FF0030C0CFAF7
:100D30000EFC24EA0C0C4C6804F0030404FA0EF4D4
:100D400044EA0C0404604C6814F4403FC1D04FEAFC
:100D5000930C0CF10205144C54F8255003F0030ECB
:100D60004FEA8E0E0F2404FA0EF425EA0405B0F1C2
:100D7000904F3FF474AF0E4CA0420ED004F5806447
:100D8000A0420CD004F58064A0420AD004F580642F
:100D9000A0423FF462AF072462E7012460E7022427
:100DA0005EE703245CE7F0BD000001400008005846
:100DB000000400480369194201D001207047002057
:100DC00070470AB18161704781627047002869D01D
:100DD00030B587B0044690F8A9323BB1032384F8BC
:100DE000A932206801F0F3FB00231BE080F8A83251
:100DF000FFF7AEFDF2E75A1C02EB820104EBC101E2
:100E00000120487002EB820104F8313004EBC1008C
:100E10000021C17003EB830004EBC0008163C16358
:100E20000164D3B260688342E5D3002316E003EB8C
:100E3000830204EBC202002182F8691182F8683152
:100E400082F86B11C2F87811C2F87C1103EB8302AF
:100E500004EBC202C2F880110133DBB29842E6D83B
:100E6000A4465CF8105BEE46BCE80F00AEE80F004D
:100E7000DCF80030CEF80030231D0ECB284601F000
:100E8000B0FB002384F82430012384F8A932E369FD
:100E9000012B02D0002007B030BD204600F004F83E
:100EA0000020F8E701207047034602680121C0F8DE
:100EB000E812002083F8E002B2F854309BB20B43F2
:100EC000A2F85430B2F854309BB243F00203A2F8B7
:100ED00054307047024A136843F4807313607047BC
:100EE00000040058024B186800F4C060704700BF4F
:100EF0000004005830B58DB005468E462B4C94E862
:100F00000F000DF1300C0CE90F0005AB04F11002DD
:100F100007CA83E807000DF1040C1C3494E80F00A5
:100F20008CE80F00BEF5007F07D0002314E00CAA68
:100F300002EB830353F82C5C1EE00023032B08D83C
:100F40000CAA02EB830252F8102CAA42EFD2013312
:100F5000F4E7002510E00133022B0CD80CAA02EBB9
:100F6000830252F81C2CAA42F5D30CAA02EB83038D
:100F700053F82C5C00E000250D4A136823F00703AA
:100F80002B431360FFF7C6FD0446094B1B6803F0B3
:100F90000703AB4206D0FFF7BDFD001B0228F4D9C2
:100FA000032000E000200DB030BD00BFCC4700089A
:100FB0000040005810B5B02816D90E4BDC6A4FF02F
:100FC000B043D3F8083103F00F030B4A52F8233033
:100FD000B4FBF3F4FFF786FF0146084BA3FB043490
:100FE000A00CFFF787FF10BDC0F30310014B53F8AF
:100FF0002040E4E740480008A048000883DE1B4387
:101000004FF0B0439B6813F00C030DD14FF0B04389
:101010001B6803F0F003B02B04D81B09254A52F8D3
:1010200023007047B023F8E7042B3ED0082B10D0E4
:101030004FF0B043DB6803F00303022B31D0032BE6
:101040000FD14FF0B0431B6813F4801F2BD11A4807
:1010500012E04FF0B0431B6813F4801F27D01748ED
:1010600070474FF0B0431B6803F0F003B02B16D865
:101070001B09104A52F823004FF0B042D368C3F363
:10108000062303FB00F0D368C3F302130133B0FB64
:10109000F3F0D3685B0F0133B0FBF3F07047B0237C
:1010A000E6E70648E8E70548E6E7044870470248EF
:1010B000704700BF404800080048E8010024F400E1
:1010C00008B5FFF79DFF4FF0B0439B68C3F30313D0
:1010D000024A52F82330B0FBF3F008BDA0480008E4
:1010E000002800F0728338B50446036813F0200F1F
:1010F0002DD04FF0B0429368D26802F0030213F093
:101100000C0358D00C2B54D0E369002B00F0A080C6
:101110004FF0B042136843F001031360FFF7FAFC8D
:1011200005464FF0B0431B6813F0020F00F08880B3
:10113000636A4FF0B042116821F0F0010B43136075
:10114000216A536823F47F4343EA012353602368F1
:1011500013F0010F00F09A804FF0B042936803F053
:101160000C03D26802F00302082B00F08B800C2BDA
:1011700000F085806368B3F5803F00F0B0804FF0E9
:10118000B042136823F4803313606368002B00F0CF
:10119000AD80FFF7BFFC05464FF0B0431B6813F46A
:1011A000003F73D1FFF7B6FC401B6428F4D903203D
:1011B00016E3012AA8D1E369002B00F00883606AD6
:1011C0004FF0B0431B6803F0F003B02B21D89842D6
:1011D00021D9FFF7EFFE002840F0FB82636A4FF051
:1011E000B042116821F0F0010B431360216A53688B
:1011F00023F47F4343EA01235360FFF761FFBF4BB2
:101200001860BF4B1868FFF73BFC00289FD00120F7
:10121000E6E2B023DBE74FF0B042136823F0F003BF
:1012200018431060216A536823F47F4343EA012383
:101230005360606AFFF7BEFE0028DED00120CFE2D7
:10124000FFF768FC401B02287FF66BAF0320C7E264
:101250004FF0B042136823F001031360FFF75AFC0C
:1012600005464FF0B0431B6813F0020F3FF46FAF19
:10127000FFF750FC401B0228F3D90320B0E2032AF9
:101280007FF478AF6368002B00F0A582236813F029
:10129000020F54D04FF0B042936803F00C03D268B1
:1012A00002F00302042B33D00C2B2FD0E368002B69
:1012B00071D04FF0B042136843F480731360FFF7AE
:1012C00029FC05464FF0B0431B6813F4806F2DD105
:1012D000FFF720FC401B0228F4D9032080E24FF0E6
:1012E000B042136843F4803313604EE7FFF712FCFB
:1012F00005464FF0B0431B6813F4003FC6D0FFF71C
:1013000009FC401B6428F4D9032069E2022ACDD1EC
:10131000E368002B00F0618221694FF0B04253680E
:1013200023F0FE4343EA0163536008E021694FF074
:10133000B042536823F0FE4343EA016353602368DD
:1013400013F0180F00F0DE806269002A00F0A3801D
:1013500013F0100F70D04FF0B043D3F8943013F067
:10136000020F2ED14FF0B042D2F8943043F0010377
:10137000C2F89430FFF7CEFB05464FF0B043D3F8E8
:10138000943013F0020F1CD1FFF7C4FB401B02285E
:10139000F3D9032024E24FF0B042136823F48073A2
:1013A0001360FFF7B7FB05464FF0B0431B6813F41B
:1013B000806FC4D0FFF7AEFB401B0228F4D9032096
:1013C0000EE24FF0B042D2F8943043F00403C2F87A
:1013D0009430FFF79FFB05464FF0B043D3F89430AD
:1013E00013F0080F06D1FFF795FB401B0328F3D934
:1013F0000320F5E1A1694FF0B042D2F8943023F414
:10140000706343EA0123C2F89430D2F8943023F099
:101410000103C2F89430FFF77DFB05464FF0B0435F
:10142000D3F8943013F0020F6CD0FFF773FB401B1E
:101430000228F3D90320D3E14FF0B042D2F8943020
:1014400043F00103C2F89430FFF764FB05464FF008
:10145000B043D3F8943013F0020F06D1FFF75AFBD4
:10146000401B0228F3D90320BAE14FF0B042D2F872
:10147000943023F00403C2F894304FF0B043D3F813
:10148000943013F0080F3DD0FFF744FB401B0328B6
:10149000F3D90320A4E14FF0B042D2F8943023F006
:1014A0000403C2F89430FFF735FB05464FF0B04314
:1014B000D3F8943013F0080F18D14FF0B042D2F89F
:1014C000943023F00103C2F89430FFF723FB054664
:1014D0004FF0B043D3F8943013F0020F12D0FFF75F
:1014E00019FB401B0228F3D9032079E1FFF712FB17
:1014F000401B0328DAD9032072E100BF0800002056
:1015000010000020236813F0040F68D0B74B1B684D
:1015100013F4807F27D0A368012B35D0052B3CD056
:101520004FF0B043D3F8902022F00102C3F890208E
:10153000D3F8902022F00402C3F89020A368DBB314
:10154000FFF7E8FA05464FF0B043D3F8903013F0B8
:10155000020F44D1FFF7DEFA401B41F28833984274
:10156000F1D903203CE1FFF7B5FCFFF7D3FA0546BC
:101570009E4B1B6813F4807FCDD1FFF7CBFA401B45
:101580000228F5D903202BE14FF0B042D2F8903079
:1015900043F00103C2F89030D0E74FF0B043D3F8E6
:1015A000902042F00402C3F89020D3F8902042F03B
:1015B0000102C3F89020C1E7FFF7ACFA05464FF0EF
:1015C000B043D3F8903013F0020F08D0FFF7A2FA1F
:1015D000401B41F288339842F1D9032000E123688F
:1015E00013F0400F33D0A36AC3B14FF0B042D2F82A
:1015F000983043F00103C2F89830FFF78BFA0546A4
:101600004FF0B043D3F8983013F0020F1FD1FFF71B
:1016100081FA401B0228F3D90320E1E04FF0B042E9
:10162000D2F8983023F00103C2F89830FFF772FA2D
:1016300005464FF0B043D3F8983013F0020F06D0B0
:10164000FFF768FA401B0228F3D90320C8E0E36AD9
:10165000002B00F0C4804FF0B042916801F00C0103
:10166000D268022B19D00C2900F0BD804FF0B04297
:10167000136823F080731360FFF74CFA04464FF0B1
:10168000B0431B6813F0007F00F09780FFF742FA29
:10169000001B0228F3D90320A2E002F00303206B11
:1016A00083420AD00C2900F09C804FF0B0431B68A5
:1016B00013F0806F22D0012092E002F07003606B83
:1016C0008342EFD1C2F30623A06B8342EAD102F436
:1016D0007813E06B8342E5D102F06063206C8342B3
:1016E000E0D102F06042636C9A42DBD14FF0B0432C
:1016F0001B6813F0007F44D0002071E04FF0B0422F
:10170000136823F080731360FFF704FA05464FF067
:10171000B0431B6813F0007F06D0FFF7FBF9401BB6
:101720000228F4D903205BE04FF0B042D36830497F
:101730001940236B606B0343A06B43EA0023E06B0B
:101740000343206C0343606C03431943D160136867
:1017500043F080731360D36843F08053D360FFF786
:10176000D9F904464FF0B0431B6813F0007F06D14F
:10177000FFF7D0F9001B0228F4D9032030E0002045
:101780002EE04FF0B0431A6842F080721A60DA68B7
:1017900042F08052DA60FFF7BDF904464FF0B043E3
:1017A0001B6813F0007F06D1FFF7B4F9031B022B6F
:1017B000F4D9032014E0002012E04FF0B042D168C9
:1017C0000C4B0B40D36000200AE001207047012041
:1017D00006E0012004E0012002E0012000E00020FA
:1017E00038BD0120FCE70120FAE700BF00040058E3
:1017F0008C80C111FCFFFEEE002800F0278170B53F
:101800000C460546934B1B6803F007038B422DD310
:101810002B6813F0020F3FD12B6813F0200F53D128
:101820002B6813F0400F6AD12B6813F0040F40F0BF
:1018300083802B6813F0080F40F097802B6813F01B
:10184000010F00F0DE806B68022B00F0A880032BF4
:1018500000F0AD80002B40F0B2804FF0B042126833
:1018600012F0020F40F0B1800120EEE0794A1368D7
:1018700023F007030B431360FFF74CF90646754B43
:101880001B6803F00703A342C2D0FFF743F9801B94
:101890000228F4D90320D8E0AB684FF0B0418A6841
:1018A00022F0F00213438B60FFF734F906464FF045
:1018B000B0439B6813F4803FAED1FFF72BF9801B38
:1018C0000228F4D90320C0E06B694FF0B041D1F891
:1018D000082122F0F0021343C1F80831FFF71AF98A
:1018E00006464FF0B043D3F8083113F4003F97D1C8
:1018F000FFF710F9801B0228F3D90320A5E0A9699E
:101900004FF0B042D2F8083123F00F0343EA11132D
:10191000C2F80831FFF7FEF806464FF0B043D3F89F
:10192000083113F4803F7FF47FAFFFF7F3F8801B9B
:101930000228F2D9032088E0EB684FF0B0418A68B2
:1019400022F4E06213438B60FFF7E4F806464FF0A1
:10195000B0439B6813F4003F7FF46BAFFFF7DAF8F6
:10196000801B0228F3D903206FE029694FF0B042B1
:10197000936823F4605343EAC1039360FFF7CAF806
:1019800006464FF0B0439B6813F4802F7FF456AFA8
:10199000FFF7C0F8801B0228F3D9032055E04FF071
:1019A000B042126812F4003F0FD101204DE04FF019
:1019B000B042126812F0007F07D1012045E04FF0DD
:1019C000B042126812F4806F42D04FF0B0418A6882
:1019D00022F0030213438B60FFF79CF806464FF09A
:1019E000B0439B6803F00C036A68B3EB820F08D026
:1019F000FFF790F8801B41F288339842EFD903201B
:101A000023E0144B1B6803F00703A34215D9114AC6
:101A1000136823F0070323431360FFF77BF80546A1
:101A20000C4B1B6803F00703A34206D0FFF772F8C4
:101A3000401B0228F4D9032007E0FFF741FB064BC7
:101A40001860FFF76DF8FFF71BF870BD01207047B5
:101A50000120FAE7004000580800002008B5FFF711
:101A60002FFB4FF0B0439B68C3F30223034A52F8A5
:101A7000233003F01F03D84008BD00BF8048000892
:101A800008B5FFF71DFB4FF0B0439B68C3F3C223BB
:101A9000034A52F8233003F01F03D84008BD00BFAB
:101AA000804800084FF0B041D1F88830020902F4B4
:101AB0007F2223EA0203000100F47F200343C1F8E0
:101AC0008830704770B505464FF0B042136823F078
:101AD00080631360FFF71EF804464FF0B0431B68A5
:101AE00013F0006F06D0FFF715F8001B0228F4D999
:101AF000032400E000240CB1204670BD4FF0B04339
:101B00001A6922F4FE42296842EA01221A611A691E
:101B100022F4781269680A431A611A6842F08062F6
:101B20001A60FEF7F7FF06464FF0B0431B6813F04C
:101B3000006F05D1FEF7EEFF801B0228F4D90324C5
:101B4000002CD9D14FF0B042136929690B431361BE
:101B5000D2E770B505464FF0B042136823F08063BA
:101B60001360FEF7D7FF04464FF0B0431B6813F035
:101B7000006F06D0FEF7CEFF001B0228F4D9032425
:101B800000E000240CB1204670BD4FF0B0431A694C
:101B900022F4FE42296842EA01221A611A6922F0FF
:101BA0006062A9680A431A611A6842F080621A608A
:101BB000FEF7B0FF06464FF0B0431B6813F0006F0E
:101BC00005D1FEF7A7FF801B0228F4D90324002CBF
:101BD000D9D14FF0B042136929690B431361D2E7A1
:101BE00070B505464FF0B042136823F08063136070
:101BF000FEF790FF04464FF0B0431B6813F0006FF0
:101C000006D0FEF787FF001B0228F4D9032400E06A
:101C100000240CB1204670BD4FF0B0431A6922F485
:101C2000FE42296842EA01221A611A6922F06042E2
:101C3000E9680A431A611A6842F080621A60FEF786
:101C400069FF06464FF0B0431B6813F0006F05D1E3
:101C5000FEF760FF801B0228F4D90324002CD9D1A1
:101C60004FF0B042136929690B431361D2E770B595
:101C70000446036813F0400F2FD0036BB3F5800FB9
:101C800021D00AD833B90430FFF71CFF064658B1FB
:101C9000054624E001252E4621E0B3F5000F1AD0B9
:101CA000B3F5400F0CD10026236B4FF0B041D1F8B3
:101CB000882022F440021343C1F8883000250EE04A
:101CC00001252E460BE04FF0B042D36843F4803339
:101CD000D3600026E8E70026E6E700252E462368C5
:101CE00013F4006F0AD04FF0B043D3F8905005F4CE
:101CF0004075236CAB4240F0B7803546236813F043
:101D0000010F09D0A3694FF0B041D1F8882022F02B
:101D100003021343C1F88830236813F0020F09D07F
:101D2000E3694FF0B041D1F8882022F440621343B8
:101D3000C1F88830236813F0100F0CD0A06A4FF060
:101D4000B041D1F88830020C120423EA020343EABE
:101D50000043C1F88830236813F0200F0CD0E06AEC
:101D60004FF0B041D1F88830020C120423EA02038C
:101D700043EA0043C1F88830236813F0040F40F0B1
:101D8000B480236813F0080F40F0B380236813F485
:101D9000807F13D0636B4FF0B041D1F8882022F0E0
:101DA00040621343C1F88830636BB3F1006F00F0F9
:101DB000A480636BB3F1806F00F0A480236813F4F8
:101DC000007F17D0A36BB3F1804F05D0B3F1004F64
:101DD00002D0002B40F09E804FF0B041D1F8882017
:101DE00022F040421343C1F88830A36BB3F1C05FC7
:101DF00000F0A280236813F4806F13D0E36B4FF0E0
:101E0000B041D1F8882022F040521343C1F8883005
:101E1000E36BB3F1005F00F09680E36BB3F1805F9A
:101E200000F09680236813F4805F09D0636C4FF054
:101E3000B041D1F8942022F440421343C1F89430C9
:101E4000236813F4005F0DD0E26C4FF0B043596A81
:101E500021F030010A435A62A26C596A21F0030151
:101E60000A435A62284670BDFFF734F85DB9236C07
:101E70004FF0B041D1F8902022F440721343C1F8E2
:101E8000903035463AE74FF0B043D3F89020D3F87E
:101E9000901041F48031C3F89010D3F8901021F4E1
:101EA0008031C3F8901022F44072216C0A43C3F8C9
:101EB0009020D3F8903013F0010F12D0FEF72AFED5
:101EC00005464FF0B043D3F8903013F0020F0AD11B
:101ED000FEF720FE401B41F288339842F1D90325DA
:101EE0000CE735460AE7354608E7206AFFF7DAFDD2
:101EF00047E7606AFFF7D6FD48E7CB6843F0807399
:101F0000CB6056E7201DFFF724FE00283FF456AFB4
:101F1000054653E723F080534FF0B042D2F88810C3
:101F200021F04041C2F88810D2F8881021F04061B9
:101F30000B43C2F8883058E74FF0B042D36843F003
:101F40008073D36056E7CB6843F48033CB6064E79B
:101F5000201DFFF745FE00283FF464AF054661E70A
:101F60004FF0B042136843F00403136070470268F7
:101F700052E8003F23F4907342E800310029F6D183
:101F8000026802F1080353E8003F23F0805323F076
:101F90000103083242E800310029F1D1C36E012B60
:101FA00006D02023C0F88C300023C36643677047F7
:101FB000026852E8003F23F0100342E80031002994
:101FC000F6D1EEE770B504460168836802691343F1
:101FD00042691343C269134308688B4A02401A439B
:101FE0000A602268536823F44053E1680B4353604E
:101FF000A1692268854B9A4201D0236A19439368EC
:1020000023F06E4323F430630B4393602268D36A5A
:1020100023F00F03616A0B43D36222687C4B9A4220
:1020200014D07A4B9A4225D0102378498A4240D066
:10203000E069B0F5004F7AD0013B072B00F2D68063
:10204000DFE803F0A5A3D4BED4D4D4C14FF0B0438D
:10205000D3F8883003F00303032B09D8DFE803F03B
:1020600002041F060123E0E70423DEE70823DCE780
:102070001023DAE74FF0B043D3F8883003F440631D
:10208000B3F5006F0DD005D86BB1B3F5806F0CD1EF
:102090000423CAE7B3F5406F09D10823C5E702233B
:1020A000C3E70223C1E70023BFE71023BDE71023E6
:1020B000BBE7082B00F28A80DFE803F00888378846
:1020C0003488888805004FF4004003E0FFF7C6FC21
:1020D00000287DD0626A4F4B33F81220B0FBF2F338
:1020E000656805EB4501994274D8B3EB053F73D899
:1020F000002633463146FEF723F8090241EA106113
:1021000000026B08C0182A46334641F10001FEF771
:1021100017F8A0F54072404B9A425FD82368D86008
:10212000304664E0FEF76CFFD2E73C48D2E7013B63
:10213000072B55D8DFE803F0060454265454540AFC
:10214000364803E0FFF79CFC00284BD0626A314B15
:1021500033F81230B0FBF3F06268530803EB40032E
:10216000B3FBF2F3A3F110014FF6EF7291423BD8AB
:102170009AB222F00F02C3F3420313432268D360E2
:10218000002034E0FEF73CFFDEE7244802E0FFF7E2
:1021900077FCA8B3626A1F4B33F81230B0FBF3F040
:1021A000636800EB5300B0FBF3F0A0F110024FF6B0
:1021B000EF739A4226D8236880B2D860002016E0D8
:1021C000FEF71EFFE5E74FF40040E3E701200EE0D5
:1021D00000200CE001200AE0012008E0012006E0D8
:1021E000012004E0002002E0012000E001200123A2
:1021F000A4F86A30A4F8683000236367A36770BD51
:102200000020F4E70120F2E7F369FFCF00800040EF
:1022100000380140E0480008FFFC0F000024F400F3
:10222000836A13F0080F06D00268536823F4004352
:10223000816B0B435360836A13F0010F06D0026871
:10224000536823F40033C16A0B435360836A13F06D
:10225000020F06D00268536823F48033016B0B43EE
:102260005360836A13F0040F06D00268536823F4A6
:102270008023416B0B435360836A13F0100F06D029
:102280000268936823F48053C16B0B439360836AA5
:1022900013F0200F06D00268936823F40053016CFA
:1022A0000B439360836A13F0400F0AD002685368AF
:1022B00023F48013416C0B435360436CB3F5801FD0
:1022C0000BD0836A13F0800F06D00268536823F4A2
:1022D0000023C16C0B43536070470268536823F4BA
:1022E000C003816C0B435360EBE72DE9F8430546CF
:1022F0000F4616469946DDF820802B68DC6937EAE0
:1023000004040CBF01240024B44232D1B8F1FF3FD1
:10231000F3D0FEF7FFFBA0EB090040452CD8B8F145
:10232000000F2BD02B681A6812F0040FE5D0DA6981
:1023300012F0080F11D1DA6912F4006FDDD04FF4FA
:1023400000621A622846FFF712FE2023C5F890307B
:10235000002385F8843003200CE008241C62284602
:10236000FFF705FEC5F89040002385F88430012072
:1023700000E00020BDE8F8830320FBE70320F9E735
:1023800030B583B004460023C0F89030FEF7C2FB9E
:1023900005462268126812F0080F10D123681B68E6
:1023A00013F0040F28D12023C4F88830C4F88C30EF
:1023B0000020E066206784F8840003B030BD6FF031
:1023C0007E430093034600224FF400112046FFF79E
:1023D0008CFF0028E2D0226852E8003F23F08003FF
:1023E00042E800310029F6D12023C4F888300023C8
:1023F00084F884300320E0E76FF07E4300932B469F
:1024000000224FF480012046FFF76FFF0028CAD05A
:10241000226852E8003F23F4907342E8003100291B
:10242000F6D1226802F1080353E8003F23F00103CC
:10243000083242E800310029F3D12023C4F88C305F
:10244000002384F884300320B7E778B310B504463E
:10245000D0F888300BB32423C4F88830226813687E
:1024600023F001031360A36AE3B92046FFF7AAFD36
:10247000012811D02268536823F4904353602268E6
:10248000936823F02A0393602268136843F00103E2
:1024900013602046FFF774FF10BD80F88430FEF70C
:1024A00013FAD8E72046FFF7BBFEDEE701207047AE
:1024B000436E2BB90123A0F86A30A0F8683070474A
:1024C00030B403689A68C2F342629968490F094DB3
:1024D0006B5CDB00084C615C93FBF1F3A0F86A30A5
:1024E000AB5CDB00A25C93FBF2F3A0F8683030BC7D
:1024F000704700BF00490008F848000890F8843091
:10250000012B18D0012380F884302423C0F88830B0
:1025100003681A68196821F00101196022F000525D
:102520000023436601680A602022C0F8882080F8F2
:102530008430184670470220704738B590F88430D0
:10254000012B1DD00446012380F884302423C0F8D9
:10255000883003681D681A6822F001021A60026858
:10256000936823F0604319439160FFF7A1FF23684C
:102570001D602023C4F88830002084F8840038BD12
:102580000220FCE738B590F88430012B1DD00446BA
:10259000012380F884302423C0F8883003681D6844
:1025A0001A6822F001021A600268936823F06063DF
:1025B00019439160FFF77CFF23681D602023C4F856
:1025C0008830002084F8840038BD0220FCE7B0F891
:1025D000403023F47E535B045B0CA0F840300020B5
:1025E000704784B0844601A880E80E000123ACF84F
:1025F00040300020ACF84000ACF84400ACF850008B
:1026000004B0704708B501F0F0FE10B102684068F0
:10261000904708BDEFF305832BB9064B186828B91E
:1026200001221A6070476FF0050070474FF0FF30CD
:10263000704700BF880A0020EFF3058373B90A4B87
:102640001B68012B0DD110B50024084BDC77064B1D
:1026500002221A6001F060F9204610BD6FF00500FB
:1026600070474FF0FF307047880A002000ED00E00F
:10267000F0B587B000240594EFF3058474BB68B30C
:1026800022B31568936903B918235C1E372C49D807
:10269000546814F0010F47D156696EB14FEA960C99
:1026A00094682CB1D7685B2F02D9176907B1C6B9F6
:1026B0002CB14FF0FF340EE04FF0800CF0E7D468FF
:1026C0008CB9146994B14FF0FF3404E0154600242E
:1026D00018234FF0800C012C0AD0ACB1059807B03C
:1026E000F0BD0124F7E74FF0FF34F4E70024F2E7F0
:1026F000146992680292019400930B46624629463F
:1027000001F09CF80590E9E705AA019200930B46B9
:102710001FFA8CF2294601F0CCF80128DED0002304
:102720000593DBE70020DAE70020D8E72DE9F04346
:1027300083B0EFF30587002F43D10646894615463F
:102740001C4600283FD0082000F0DCFA8046002814
:102750003BD006604560B9F1000F00D0012704B3FB
:102760002068A36813B1E2682B2A10D853B14FF048
:10277000FF33DBB10024404600F046FB204603B0A7
:10278000BDE8F083E3687BB14FF0FF33F1E70193DD
:102790000F4B009343463A46012101F071FC044679
:1027A0000CE020460023E4E70023E2E7084B009317
:1027B00043463A46012101F047FC0446002CDDD196
:1027C000D9E70024DAE70024D8E70446D6E700BFBB
:1027D00005260008EFF305836BB90A4670B100B512
:1027E00083B00093042101F075FC012809D1002079
:1027F00003B05DF804FB6FF0050070476FF0030055
:1028000070476FF00200F3E7034B0360034B0B606C
:1028100080231360704700BF2C0A00202C08002082
:10282000034B0360034B0B604FF4807313607047DE
:10283000D0070020D003002000F1080343604FF0D0
:10284000FF328260C360036100230360704700238E
:102850000361704743684B609A688A605160996071
:102860000861036801330360704730B40D68B5F147
:10287000FF3F11D000F108031C465B681A68AA42AA
:10288000FAD963684B6099608C6061600861036885
:102890000133036030BC70470469F2E703694168A3
:1028A00082688A60416851605A68824206D000227C
:1028B00002611A68013A1A601868704782685A60A3
:1028C000F5E7000082B0002301930D4B1B68B3F1C4
:1028D000FF3F08D04FF0500383F31188BFF36F8F91
:1028E000BFF34F8FFEE74FF0500383F31188BFF320
:1028F0006F8FBFF34F8F019B002BFCD002B070474E
:102900001400002008480068006880F308884FF031
:10291000000080F3148862B661B6BFF34F8FBFF337
:102920006F8F00DF00BF000008ED00E0DFF80C0053
:10293000016841F4700101607047000088ED00E01B
:102940004FF0807340F8043C21F0010140F8081C6E
:10295000054B40F80C3C40F8202C6FF0020340F887
:10296000243C4438704700BFC52800080000000020
:10297000074B19680868B0E8F04F80F30988BFF387
:102980006F8F4FF0000080F311887047AFF3008025
:10299000F01B00204FF0500383F31188BFF36F8FBB
:1029A000BFF34F8F0B4A136801331360012B00D024
:1029B00070474FF0E023D3F8043D13F0FF0FF7D03A
:1029C0004FF0500383F31188BFF36F8FBFF34F8F26
:1029D000FEE700BF14000020094B1B6843B94FF00D
:1029E000500383F31188BFF36F8FBFF34F8FFEE760
:1029F000013B034A13600BB983F31188704700BF92
:102A00001400002000000000000000000000000092
:102A1000EFF30980BFF36F8F154B1A681EF0100F8C
:102A200008BF20ED108A20E9F04F10602DE9090061
:102A30004FF0500080F31188BFF34F8FBFF36F8FBB
:102A400001F0CCF84FF0000080F3118809BC196840
:102A50000868B0E8F04F1EF0100F08BFB0EC108A05
:102A600080F30988BFF36F8F704700BFAFF300801A
:102A7000F01B002008B54FF0500383F31188BFF31B
:102A80006F8FBFF34F8F00F0A1FF28B14FF0E0230D
:102A90004FF08052C3F8042D002383F3118808BD42
:102AA0004FF0E022002313619361054B1B68054939
:102AB000A1FB03139B09013B53610723136170477B
:102AC00008000020D34D62104FF0E023D3F8002D12
:102AD0003D4B9A421CD04FF0E023D3F8002D3B4BE6
:102AE0009A421ED030B583B0394B1A78D2B20192D7
:102AF000FF221A701B78DBB28DF803309DF803308B
:102B000003F05003334A1370334B07221A601BE063
:102B10004FF0500383F31188BFF36F8FBFF34F8FD4
:102B2000FEE74FF0500383F31188BFF36F8FBFF3BD
:102B30004F8FFEE7284A1368013B13609DF803306E
:102B40005B00DBB28DF803309DF8033013F0800F8B
:102B5000F0D1214B1B68032B08D04FF0500383F3B7
:102B60001188BFF36F8FBFF34F8FFEE71B021A4A26
:102B7000136003F4E0631360019BDBB2144A13702B
:102B80004FF0E024D4F8203D43F47003C4F8203D16
:102B9000D4F8203D43F07043C4F8203DFFF780FF98
:102BA00000250E4B1D60FFF7C1FED4F8343F43F003
:102BB0004043C4F8343FFFF7A5FE01F00FF8FFF7DC
:102BC00081FE284603B030BD71C20F4170C20F4173
:102BD00000E400E0900A00208C0A0020140000208D
:102BE000EFF305830F2B0FD9114A9B5CDBB2114A1F
:102BF00012789A4208D94FF0500383F31188BFF33B
:102C00006F8FBFF34F8FFEE74FF0E023D3F80C3DFB
:102C100003F4E063084A1268934208D94FF0500366
:102C200083F31188BFF36F8FBFF34F8FFEE77047B9
:102C3000F0E300E0900A00208C0A0020124A12F013
:102C4000070F1ED0D11D21F00701C1F540631344C9
:102C50000A460E480260002141601344083B23F0FD
:102C600007030B48036059601960991A516013609B
:102C7000084B1960084B1960084B4FF000421A606E
:102C800070474FF44063E4E7B40A0020AC0A002028
:102C9000A80A0020A00A0020A40A0020940A00200C
:102CA000164B1A461B688342FBD3516802EB010C9A
:102CB000844509D0416800EB010C634509D00360ED
:102CC000904219D01060704740680144516010462E
:102CD000F0E710B40A4C2468A3420BD05B68194497
:102CE000416013681B680360904200D010605DF87B
:102CF000044B70470460F7E7704700BFAC0A002040
:102D0000A80A002038B5044600F052FE384B1B6874
:102D1000B3B1384B1B681C4250D1002C50D004F189
:102D2000080214F0070F02D022F007020832002A2E
:102D300055D0314B1B68934253D330490C6804E0A3
:102D4000FFF77CFFE5E721461C466368934202D209
:102D50002368002BF7D1264B1B68A34243D00D6894
:102D6000083523680B6063689B1A102B10D9A018D4
:102D700010F0070F08D04FF0500383F31188BFF312
:102D80006F8FBFF34F8FFEE743606260FFF788FFEE
:102D9000626819490B689B1A0B60194909688B42D4
:102DA00001D217490B60134B1B6813436360002368
:102DB0002360144A13680133136002E0002500E029
:102DC000002500F08FFE15F0070F0ED04FF05003D6
:102DD00083F31188BFF36F8FBFF34F8FFEE700259A
:102DE000EFE70025EDE70025EBE7284638BD00BFFB
:102DF000A80A0020940A0020A40A0020AC0A00209F
:102E0000A00A00209C0A0020002834D038B50446CF
:102E1000A0F1080550F8043C174A1268134208D183
:102E20004FF0500383F31188BFF36F8FBFF34F8FC1
:102E3000FEE750F8081C41B14FF0500383F31188AE
:102E4000BFF36F8FBFF34F8FFEE723EA020340F813
:102E5000043C00F0ADFD54F8041C084A13680B4410
:102E600013602846FFF71CFF054A136801331360FF
:102E700000F038FE38BD7047940A0020A40A0020F4
:102E8000980A002010B50446FFF784FDA26BE36B9F
:102E90009A4204D00024FFF79FFD204610BD012474
:102EA000F9E710B50446FFF775FDA36B23B90124BC
:102EB000FFF792FD204610BD0024F9E770B50446E7
:102EC0001546866B026C5AB903681BB100200136A7
:102ED000A66370BD806800F0ABFF0023A360F6E737
:102EE0006DB9406801F0FAFA6368226C13446360BC
:102EF000A268934219D3236863602846E7E7C06855
:102F000001F0ECFAE368226C51429B1AE3602268FC
:102F1000934202D2A3680B44E360022D01D000204B
:102F2000D5E726B1013E0020D1E72846CFE70020B3
:102F3000CDE70346026C6AB110B50846D968114462
:102F4000D9609C68A14201D31968D960D96801F0A1
:102F5000C5FA10BD704738B50546FFF71BFD95F85B
:102F6000454064B201E0013C64B2002C0ADD6B6AAA
:102F700043B105F1240000F0B1FE0028F3D000F0C9
:102F800041FFF0E7FF2385F84530FFF725FDFFF708
:102F900001FD95F8444064B201E0013C64B2002CAC
:102FA0000ADD2B6943B105F1100000F097FE0028FF
:102FB000F3D000F027FFF0E7FF2385F84430FFF758
:102FC0000BFD38BD38B5E0B10D460446FFF7E2FC15
:102FD0002368E26B216C01FB0230A0600020A0633B
:102FE0006360013A02FB0133E360FF2384F844305D
:102FF00084F84530FDB9236963B9FFF7EDFC012082
:1030000038BD4FF0500383F31188BFF36F8FBFF3C8
:103010004F8FFEE704F1100000F060FE0028ECD0B6
:103020004FF0E0234FF08052C3F8042DBFF34F8FD1
:10303000BFF36F8FE1E704F11000FFF7FDFB04F130
:103040002400FFF7F9FBD8E738B51D46049C0B4672
:1030500049B92460E063236401212046FFF7B2FFF1
:1030600084F84C5038BD2260F4E740B94FF050036B
:1030700083F31188BFF36F8FBFF34F8FFEE710B557
:1030800084B01C46844653B192B189B94FF05003C5
:1030900083F31188BFF36F8FBFF34F8FFEE74FF0BD
:1030A000500383F31188BFF36F8FBFF34F8FFEE799
:1030B0006AB150230393039B502B13D04FF050035E
:1030C00083F31188BFF36F8FBFF34F8FFEE70029A3
:1030D000EFD04FF0500383F31188BFF36F8FBFF32E
:1030E0004F8FFEE7039B012384F8463000949DF840
:1030F00018306046FFF7A8FF204604B010BDF0B5B9
:1031000085B0019288B10F461D460446B1B1022D2B
:1031100020D1E36B012B1DD04FF0500383F31188B6
:10312000BFF36F8FBFF34F8FFEE74FF0500383F372
:103130001188BFF36F8FBFF34F8FFEE7036C002B37
:10314000E5D04FF0500383F31188BFF36F8FBFF3C7
:103150004F8FFEE700F05CFE064658B9019B002B3E
:1031600048D04FF0500383F31188BFF36F8FBFF344
:103170004F8FFEE700263DE02A4639462046FFF7FE
:103180009DFE636A7BB948B14FF0E0234FF0805257
:10319000C3F8042DBFF34F8FBFF36F8FFFF71CFCF5
:1031A000012005B0F0BD04F1240000F097FD0028D7
:1031B000F4D04FF0E0234FF08052C3F8042DBFF35A
:1031C0004F8FBFF36F8FE9E7FFF706FC0020E8E7BA
:1031D00002A800F0C9FD012619E0002384F844305C
:1031E00021E0002384F8453023E02046FFF7B3FEBA
:1031F00000F078FCFFF7CEFBA26BE36B9A42BBD3E7
:10320000022DB9D0019B002BDED0002EE0D0FFF7BD
:10321000E3FB00F0CDFBFFF7BDFB94F8442052B276
:10322000B2F1FF3FD9D094F8452052B2B2F1FF3F3E
:10323000D7D0FFF7D1FB01A902A800F0A1FDD8B9B2
:103240002046FFF71FFE0028CFD0019904F110009F
:1032500000F010FD2046FFF77EFE00F043FC002842
:10326000C8D14FF0E0234FF08052C3F8042DBFF3D4
:103270004F8FBFF36F8FBDE72046FFF76CFE00F066
:1032800031FC00208DE72DE9F84390B10F4616463A
:103290001C460546B1B1022C20D1EB6B012B1DD091
:1032A0004FF0500383F31188BFF36F8FBFF34F8F3D
:1032B000FEE74FF0500383F31188BFF36F8FBFF326
:1032C0004F8FFEE7036C002BE5D04FF0500383F3E4
:1032D0001188BFF36F8FBFF34F8FFEE7FFF780FCBE
:1032E000EFF311884FF0500383F31188BFF36F8F12
:1032F000BFF34F8FAA6BEB6B9A4206D3022C04D01C
:10330000002088F31188BDE8F88395F845904FFABE
:1033100089F9AB6B224639462846FFF7CFFDB9F154
:10332000FF3F06D009F101035BB285F8453001206B
:10333000E7E76B6A0BB90120E3E705F1240000F031
:10334000CDFC18B126B101203060DAE70120D8E7C2
:103350000120D6E7F0B585B0019290B10F46044642
:10336000C1B100F055FD064600BB019B002B5ED0AD
:103370004FF0500383F31188BFF36F8FBFF34F8F6C
:10338000FEE74FF0500383F31188BFF36F8FBFF355
:103390004F8FFEE7036C002BE3D04FF0500383F315
:1033A0001188BFF36F8FBFF34F8FFEE700263EE01B
:1033B00039462046FFF7BDFD013DA563236923B9CA
:1033C000FFF70AFB012005B0F0BD04F1100000F08A
:1033D00085FC0028F4D04FF0E0234FF08052C3F872
:1033E000042DBFF34F8FBFF36F8FE9E7FFF7F4FAB8
:1033F0000020E8E702A800F0B7FC012621E0002346
:1034000084F8443029E0002384F845302BE020463E
:10341000FFF7A1FD00F066FB09E02046FFF79BFDEA
:1034200000F060FB2046FFF73CFD00283FD1FFF78E
:10343000B1FAA56B002DBBD1019B002BD6D0002E7D
:10344000D8D0FFF7C9FA00F0B3FAFFF7A3FA94F85F
:1034500044305BB2B3F1FF3FD1D094F845305BB25A
:10346000B3F1FF3FCFD0FFF7B7FA01A902A800F0F0
:1034700087FC0028D1D12046FFF713FD0028C6D0D5
:10348000019904F1240000F0F5FB2046FFF763FDED
:1034900000F028FB0028CAD14FF0E0234FF0805203
:1034A000C3F8042DBFF34F8FBFF36F8FBFE700202A
:1034B00089E700000023072B0CD8074A52F8332075
:1034C0000AB10133F7E7044A42F8331002EBC302B2
:1034D00050607047704700BFB416002070B50446B6
:1034E0000D461646FFF756FA94F844305BB2B3F136
:1034F000FF3F0DD094F845305BB2B3F1FF3F0BD0E6
:10350000FFF76AFAA36B5BB12046FFF724FD70BD9D
:10351000002384F84430EDE7002384F84530EFE7DA
:103520003246294604F1240000F0BCFBECE7000021
:10353000084B1B681B6823B9074B4FF0FF321A601A
:103540007047044B1B68DB68DB685A68024B1A60E3
:10355000704700BF64170020FC1600202DE9F047DB
:1035600080460D4617469946089EDDF824A00A9C21
:103570009200A521206B00F084FF236B07F18042AD
:10358000013A03EB820727F00707A5B34FF0000CC1
:10359000BCF10F0F09D815F80C3004EB0C0282F8BF
:1035A000343013B10CF1010CF2E7002384F84330FE
:1035B000372E00D93726E662E66400252565201DF2
:1035C000FFF745F904F11800FFF741F92461C6F14E
:1035D0003806A6616462656584F858504A464146DB
:1035E0003846FFF7ADF92060BAF1000F01D0CAF8F4
:1035F0000040BDE8F087002384F83430D8E70000AD
:1036000038B5002407E004EB840293000E48184408
:10361000FFF712F90134372CF5D90C4D2846FFF786
:103620000BF90B4C2046FFF707F90A48FFF704F99E
:103630000948FFF701F90948FFF7FEF8084B1D603C
:10364000084B1C6038BD00BF901700207C1700207D
:10365000681700204C170020381700202017002082
:10366000641700206017002010B50446FFF792F998
:10367000224A136801331360214B1B685BB1214B55
:103680001B686BB91E4B1B68DA6AE36A9A4207D85B
:103690001B4B1C6004E01A4B1C601368012B29D0E3
:1036A000194A1368013313606364E06A174B1B689F
:1036B000984201D9154B186000EB8000211D144B76
:1036C00003EB8000FFF7C6F8FFF786F90D4B1B6888
:1036D0007BB10B4B1B68DA6AE36A9A4209D24FF05E
:1036E000E0234FF08052C3F8042DBFF34F8FBFF398
:1036F0006F8F10BDFFF784FFD2E700BF1C170020BB
:10370000F01B0020101700200017002014170020C5
:103710009017002010B5044690F8593063B1012B82
:1037200011D0022B0ED04FF0500383F31188BFF35A
:103730006F8FBFF34F8FFEE7006BFFF765FB2046EF
:10374000FFF762FB10BDFFF75FFBFBE70F4B1B684A
:10375000D3B110B5FFF71EF90D4BDB68DC68201DF7
:10376000FFF79CF80B4A1368013B1360074A136884
:10377000013B1360FFF730F92046FFF7CBFF034B07
:103780001B68002BE6D110BD704700BF3417002026
:10379000381700201C17002008B5FFF7D7FF074B8C
:1037A0001B68012BF9D94FF0E0234FF08052C3F88A
:1037B000042DBFF34F8FBFF36F8FEEE790170020FC
:1037C00070B504460D46174B1E68174B1868043039
:1037D000FFF764F8B4F1FF3F0DD03444124B1B687F
:1037E0005C60A64210D9114B18680F4B1968043160
:1037F000FFF73BF870BD002DEFD00B4B196804317B
:103800000B48FFF727F8F5E70A4B1868064B1968CD
:103810000431FFF72AF8084B1B68A342EAD9064B8C
:103820001C60E7E718170020F01B0020601700203D
:103830002017002064170020FC16002030B587B048
:103840000B9C7CB10C9DB5B15C250495049D5C2D51
:103850001AD04FF0500383F31188BFF36F8FBFF37B
:103860004F8FFEE74FF0500383F31188BFF36F8F44
:10387000BFF34F8FFEE74FF0500383F31188BFF380
:103880006F8FBFF34F8FFEE7049D0C9D2C630224C6
:1038900085F8594000240394029505AC01940A9CD4
:1038A0000094FFF75BFE0C98FFF7DEFE059807B06B
:1038B00030BD2DE9F04385B00746884614461E46C4
:1038C0009000FFF71FFA08B381465C20FFF71AFA51
:1038D0000546A8B1C0F83090002380F85930039312
:1038E00002900D9B01930C9B009333462246414668
:1038F0003846FFF733FE2846FFF7B6FE012007E003
:103900004846FFF781FA4FF0FF3001E04FF0FF30FB
:1039100005B0BDE8F083000010B588B00024059420
:10392000069407AA06A905A8FEF76EFF059B029359
:10393000069B019300942346079A17491748FFF7FF
:103940007DFF174B1860C0B100F04CFB012815D16A
:103950004FF0500383F31188BFF36F8FBFF34F8F86
:10396000104B4FF0FF321A600F4B01221A600F4BC1
:1039700000221A60FFF7A8F803E00020B0F1FF3F33
:1039800001D008B010BD4FF0500383F31188BFF38E
:103990006F8FBFF34F8FFEE7084900089937000883
:1039A000F8160020FC160020101700201817002021
:1039B000024A136801331360704700BFF4160020F9
:1039C000014B1868704700BF18170020F8B53A4B34
:1039D0001B68002B69D1394B1D6801351D60C5B9C5
:1039E000374B1B681B6843B14FF0500383F31188BA
:1039F000BFF36F8FBFF34F8FFEE7314A1168314B32
:103A0000186810601960304A136801331360FFF7BB
:103A10008FFD2E4B1B68AB423DD900272C4B1B68FA
:103A2000DB6A03EB83039A002A4B9B58012B00D9D6
:103A30000127294B1B68002B3CD001273AE00127C6
:103A40001F4B1B681B6843B31D4B1B68DB68DC689E
:103A500063689D4226D3261D3046FEF71FFFA36AEA
:103A60001BB104F11800FEF719FFE36A1B4A126844
:103A7000934201D9194A136003EB83039A0031463C
:103A800014481044FEF7E6FEE26A114B1B68DB6A3D
:103A90009A42D4D2D4E70027D2E70C4B4FF0FF3242
:103AA0001A60BBE7094A1360B8E70D4A136801338F
:103AB000136000273846F8BDF416002018170020C0
:103AC000641700206017002004170020FC16002057
:103AD000F01B00209017002008170020141700206A
:103AE0000C17002038B5354B1B6843B94FF0500315
:103AF00083F31188BFF36F8FBFF34F8FFEE7FEF79D
:103B000049FF2E4B1A68013A1A601B68002B4FD1EF
:103B10002B4B1B680BB900244BE00024294B1B687E
:103B20001BB3284BDB68DC6804F11800FEF7B6FE17
:103B3000251D2846FEF7B2FEE06A234B1B6898421B
:103B400001D9214B186000EB800029461F4B03EB85
:103B50008000FEF77FFEE26A1D4B1B68DB6A9A421B
:103B6000DCD31C4B01221A60D8E70CB1FFF7E0FC54
:103B7000194B1C6884B9174B1C68D4B14FF0E02373
:103B80004FF08052C3F8042DBFF34F8FBFF36F8FF8
:103B900001240EE0013C07D0FFF718FF0028F9D000
:103BA0000C4B01221A60F5E70B4B00221A60E2E78A
:103BB0000024FEF711FF204638BD00BFF416002098
:103BC0001C1700204C17002014170020901700200D
:103BD000F01B0020081700200C170020204B1B684A
:103BE0001BB1204B01221A6070471E4B00221A6045
:103BF0001D4B1B6803EB83018A001C498A585AB984
:103C00000BB1013BF6E74FF0500383F31188BFF38C
:103C10006F8FBFF34F8FFEE7084603EB83018A00E7
:103C2000024451684968516003EB830C4FEA8C02EF
:103C30000832024491420BD003EB830291000B4AFD
:103C40000A445268D1680A4A1160074A13607047F3
:103C5000486862469100054A0A445060ECE700BF9C
:103C6000F4160020081700201417002090170020D9
:103C7000F01B002058B110B50C46094A11681831E4
:103C8000FEF7F3FD01212046FFF79AFD10BD4FF02E
:103C9000500383F31188BFF36F8FBFF34F8FFEE79D
:103CA000F01B002038B570B10D4614460A4A116861
:103CB0001831FEF7CFFD0CB14FF0FF3521462846F5
:103CC000FFF77EFD38BD4FF0500383F31188BFF33B
:103CD0006F8FBFF34F8FFEE7F01B002038B5C3682E
:103CE000DC6824B304F118052846FEF7D7FD184B0D
:103CF0001B682BBB251D2846FEF7D0FDE06A154B3F
:103D00001B68984201D9134B186000EB80002946CC
:103D1000114B03EB8000FEF79DFDE26A0F4B1B6821
:103D2000DB6A9A4211D901200D4B186038BD4FF063
:103D3000500383F31188BFF36F8FBFF34F8FFEE7FC
:103D400029460848FEF786FDE7E70020EEE700BFBA
:103D5000F41600201417002090170020F01B0020FC
:103D6000081700204C170020034B1B680360034B0F
:103D70001B684360704700BF04170020181700201D
:103D8000F8B5C8B10C460546F9B1FEF703FE1B4B6A
:103D900019686B68C81A2268B2F1FF3F26D0184E26
:103DA00036682F68B74201D08B4224D9824215D899
:103DB0000023236001241AE04FF0500383F311889D
:103DC000BFF36F8FBFF34F8FFEE74FF0500383F3C6
:103DD0001188BFF36F8FBFF34F8FFEE75B1A134459
:103DE00023602846FFF7C0FF002400E00024FEF710
:103DF000F3FD2046F8BD0124F9E700BF18170020A5
:103E000004170020014B01221A6070470817002098
:103E1000054B1B6833B1054B1B680BB10020704785
:103E2000022070470120704710170020F416002070
:103E300000283BD038B504461E4B1B68834208D08F
:103E40004FF0500383F31188BFF36F8FBFF34F8F91
:103E5000FEE7036D43B94FF0500383F31188BFF3BE
:103E60006F8FBFF34F8FFEE7013B0365C16AC26CE2
:103E700091421DD00BB1002038BD051D2846FEF72C
:103E80000DFDE06CE062C0F13803A3610A4B1B68D2
:103E9000984201D9084B186000EB80002946074B77
:103EA00003EB8000FEF7D6FC0120E5E70020704719
:103EB0000020E1E7F01B00201417002090170020DD
:103EC000064B1A6813682BB90123036023B9D36822
:103ED000186870470023F8E700207047F41C0020A2
:103EE00008B54160006191420CD8D21A83699A42A8
:103EF00001D3012008BD011D094B1868FEF7B5FC70
:103F00000020F7E79A4201D2994206D2011D054BE3
:103F10001868FEF7AAFC0020ECE70120EAE700BFE2
:103F2000F01C0020F41C002030B583B0FEF732FDF9
:103F3000114B1B681BB1FEF74FFD03B030BD0F4D99
:103F40002846FEF779FC0E4C2046FEF775FC0D4B1B
:103F50001D600D4B1C60002300930C4B0C4A10217C
:103F60000A20FFF782F8044B18600028E3D00949C3
:103F7000FFF7A0FADFE700BFEC1C00200C1D0020BB
:103F8000F81C0020F41C0020F01C0020F41B002072
:103F9000441C0020104900082DE9F041079F41B959
:103FA0004FF0500383F31188BFF36F8FBFF34F8F30
:103FB000FEE7064614461D4688468FB1FFF7B4FF5C
:103FC0003E60C7F81880FD61069B3B62381DFEF716
:103FD0003EFC2CB197F8283043F0040387F82830D2
:103FE000BDE8F08110B588B0FFF79EFF124B1B684B
:103FF000CBB100240594069407AA06A905A8FEF7EC
:104000000FFC059B0293069B01930223009323461A
:10401000079A0A490A48FFF711FC0A4B186010B1C9
:10402000012008B010BD4FF0500383F31188BFF397
:104030006F8FBFF34F8FFEE7EC1C0020184900087C
:10404000D5430008E81C00202DE9F04182B0044669
:10405000884617461D462C20FEF754FE064658B1EA
:10406000002380F828300190089B00932B463A46A5
:1040700041462046FFF790FF304602B0BDE8F08190
:1040800010B584B084462C20039003982C2808D0C7
:104090004FF0500383F31188BFF36F8FBFF34F8F3F
:1040A000FEE70398079860B10220079C84F8280077
:1040B0000194069800906046FFF76EFF079804B0E1
:1040C00010BD4FF0500383F31188BFF36F8FBFF320
:1040D0004F8FFEE7B8B19C4603461848006858B3B6
:1040E00000B585B000910192029305291CDCFFF711
:1040F0008FFE022810D000231A4669460F48006838
:10410000FEF7FDFF15E04FF0500383F31188BFF376
:104110006F8FBFF34F8FFEE70023069A694607486B
:104120000068FEF7ECFF04E0002362466946FFF7F3
:10413000AAF805B05DF804FB00207047EC1C0020D5
:1041400070B582B01B4B1B681A6862B3DB681E68CF
:10415000DC68251D2846FEF7A1FB236A2046984708
:1041600094F8283013F0040FECD0A36933449E4236
:1041700007D26360246129460E4B1868FEF775FB71
:10418000E0E7002100910B4632462046FFF7A2FFF0
:104190000028D7D14FF0500383F31188BFF36F8FFE
:1041A000BFF34F8FFEE7044A1068024908601360AE
:1041B00002B070BDF41C0020F01C002038B505468C
:1041C000FFF7FEFB0446074B1B68834205D800231C
:1041D0002B60044B1C60204638BDFFF7B1FF012364
:1041E0002B60F6E7E41C002070B582B006460D4651
:1041F00017490968C968CC68201DFEF74FFB94F881
:1042000028C01CF0040F08D12CF0010C84F828C041
:10421000236A2046984702B070BDA16933462A46FA
:1042200031442046FFF75CFE0028F1D000210091C8
:104230000B4632462046FFF74DFF0028E8D14FF0ED
:10424000500383F31188BFF36F8FBFF34F8FFEE7E7
:10425000F41C002070B582B006460C46FFF7A8FBA0
:1042600001A8FFF7ABFF019B33BB0546E4B9B042A1
:1042700013D22246711B124B1868FFF72FF9FFF774
:1042800031FCD8B94FF0E0234FF08052C3F8042D31
:10429000BFF34F8FBFF36F8F10E0FFF723FC29466A
:1042A0003046FFF7A1FF09E0064A126812680AB912
:1042B0000124DEE71C46DCE7FFF714FC02B070BD0A
:1042C000EC1C0020F01C002010B588B002E0049B1C
:1042D000002B0FDA002204A93D4B1868FFF73AF8CB
:1042E000002873D0049B002BF1DA07990698059BF0
:1042F0009847ECE7069C636913B1201DFEF7CEFAE0
:1043000003A8FFF75BFF049B092BE3D8DFE803F06A
:104310000505053037500505303794F8283043F04F
:10432000010384F82830059BA16902461944204600
:10433000FFF7D6FD0028CDD0236A2046984794F891
:10434000283013F0040FC5D0A269002100910B465C
:10435000059802442046FFF7BDFE0028BAD14FF071
:10436000500383F31188BFF36F8FBFF34F8FFEE7C6
:1043700094F8283023F0010384F82830AAE794F851
:10438000283043F0010384F828300599A16131B148
:104390000346024601442046FFF7A2FD9AE74FF08C
:1043A000500383F31188BFF36F8FBFF34F8FFEE786
:1043B00094F8283013F0020F04D023F0010384F89E
:1043C000283087E72046FEF71FFD83E708B010BDC1
:1043D000EC1C002000B583B001A8FFF771FD019926
:1043E000FFF738FFFFF770FFF6E740B110B504465E
:1043F000FEF7D0FAE469FEF7EFFA204610BD4FF061
:10440000500383F31188BFF36F8FBFF34F8FFEE725
:10441000D458C4500433C4188C42F9D37047036095
:1044200004308842FBD370470C488546FCF7F6FA07
:104430000B480C490C4A0023FFF7EDFF0B480C49D1
:104440000C4A0023FFF7E7FF0B480C490023FFF756
:10445000E8FF00F01FF8FCF701FAFEE70000032078
:104460000800002018000020304900080000032048
:10447000000003204049000818000020201D0020F3
:10448000FEE702440346934200D1704703F8011B44
:10449000F9E7000070B50D4D0D4C641BA41000260B
:1044A000A64209D10B4D0C4C00F084F9641BA410FA
:1044B0000026A64205D170BD55F8043B9847013649
:1044C000EEE755F8043B98470136F2E72849000823
:1044D00028490008284900082C4900080A4491424C
:1044E00000F1FF3300D1704710B511F8014B03F80C
:1044F000014F9142F9D110BD2DE9F047089D0C46BE
:10450000002B4ED194468C458646B2FA82F262D98F
:104510004AB1C2F12003914020FA03F30CFA02FCE5
:10452000194300FA02FE4FEA1C471FFA8CF6B1FB52
:10453000F7F44FEA1E4307FB141143EA014304FB5F
:1045400006F199420AD91CEB030304F1FF3080F015
:104550001281994240F20F81023C6344591A1FFABA
:104560008EF3B1FBF7F007FB101143EA014300FBA8
:1045700006F69E420AD91CEB030300F1FF3180F0DE
:10458000FC809E4240F2F980634402389B1B40EA63
:10459000044000211DB1D3400022C5E90032BDE82E
:1045A000F0878B4205D90DB1C5E90001002108460D
:1045B000F5E7B3FA83F1002946D1A34202D3904232
:1045C000C0F0F080861A64EB03030120002DE6D0D2
:1045D000C5E90063E3E7002A40F09080A1EB0C04FA
:1045E0004FEA1C481FFA8CF70121B4FBF8F64FEA9A
:1045F0001E4308FB164443EA044307FB06F09842B7
:1046000008D91CEB030306F1FF3402D2984200F2F2
:10461000CD8026461C1A1FFA8EF3B4FBF8F008FB77
:10462000104443EA044300FB07F79F4208D91CEB00
:10463000030300F1FF3402D29F4200F2B080204613
:10464000DB1B40EA0640A5E7C1F120068B4022FAB9
:1046500006F71F4320FA06FC04FA01F343EA0C03B1
:10466000F44000FA01F8380C4FEA1349B4FBF0FEAD
:104670001FFA87FC00FB1E4449EA04440EFB0CF9B8
:10468000A14502FA01F20AD93C190EF1FF3A80F075
:104690008480A14540F28180AEF1020E3C44A4EB3F
:1046A00009041FFA83F9B4FBF0F300FB134449EA51
:1046B000044403FB0CFCA44507D93C1903F1FF306B
:1046C00067D2A44565D9023B3C4443EA0E40A0FBB7
:1046D0000293A4EB0C049C42CE469C4651D34ED090
:1046E00055B1B8EB0E0364EB0C0404FA06F6CB40AC
:1046F0001E43CC40C5E90064002150E7C2F120030D
:1047000020FA03F10CFA02FC24FA03F394400C4360
:104710004FEA1C4800FA02FE1FFA8CF7B3FBF8F0D0
:1047200008FB1031230C43EA014300FB07F19942D7
:1047300008D91CEB030300F1FF362CD299422AD989
:10474000023863445B1AA4B2B3FBF8F108FB1133DF
:1047500044EA034401FB07F3A34208D91CEB040419
:1047600001F1FF3613D2A34211D902396444E41A8D
:1047700041EA004139E70446F0E6084606E7C84545
:10478000AED2B9EB020E63EB070C0138A8E7314655
:10479000EDE7034699E73046D4E7D6467FE7634422
:1047A00002384DE70646234608460FE7023E6344BB
:1047B00030E700BFF8B500BFF8BC08BC9E467047A4
:0C47C000F8B500BFF8BC08BC9E4670476E
:1047CC001200000024000000360000004000000031
:1047DC00060000000C0000001000000000000000AB
:1047EC0001000000020000000300000074696D6508
:1047FC007200000064656661756C745461736B00C3
:10480C00F847000800000000000000000000000055
:10481C00004800080000000000000000000000003C
:10482C000000000000020000180000000000000062
:10483C0000000000A0860100400D0300801A060055
:10484C0000350C0040420F0080841E0000093D0022
:10485C0000127A000024F40000366E010048E801D2
:10486C00006CDC02000000000000000000000000F2
:10487C00000000000000000000000000000000002C
:10488C000000000001000000020000000300000016
:10489C0004000000010000000300000005000000FF
:1048AC000100000001000000060000000A000000EA
:1048BC0020000000020000000400000008000000BE
:1048CC00100000004000000080000000000100000B
:1048DC0000020000010002000400060008000A00AB
:1048EC000C001000200040008000000108040204AD
:1048FC0008010101010101030701000049444C4575
:10490C0000000000546D725100000000546D7220C4
:04491C00537663006B
:08492000D8FBFF7F010000003D
:0449280099010008E9
:04492C007501000809
:1049300000093D000100000010000000AAAAAAAA78
:040000050800442982
:00000001FF
